:100000000C9434000C9451000C9451000C94510049
:100010000C9451000C9451000C9451000C94060265
:100020000C9451000C9451000C9451000C9451000C
:100030000C9451000C9451000C9451000C945100FC
:100040000C9451000C9451000C9451000C945100EC
:100050000C9451000C9451000C9451000C945100DC
:100060000C9451000C94510011241FBECFEFD8E026
:10007000DEBFCDBF11E0A0E0B1E0EEECF4E002C0E5
:1000800005900D92A430B107D9F721E0A4E0B1E0CA
:1000900001C01D92A631B207E1F70E9453000C94F3
:1000A00065020C9400000E9462010E94AF0187E08B
:1000B0000E940C01EC0186E00E940C015C0185E0CD
:1000C0000E940C018C019E01A4EBB0E00E9456023C
:1000D0000F2ECC24CA94F3E0DF2EE12CF12CF02D6E
:1000E000A70196010E943402D22F9501A4EBB0E043
:1000F0000E945602A70196010E943402C22F980165
:10010000A4E6B0E00E945602A70196010E943402C4
:10011000F22E8D2F0E949C008C2F0E94D4008F2DD8
:100120000E94A4012FEF89EF90E021508040904081
:10013000E1F700C00000BBCF853B08F084EB282F1F
:1001400030E0A0EABFE00E94560224EB30E040E03D
:1001500050E00E94340228513C4F409102015091DE
:100160000301CA01880F991F880F991F880F991FD3
:10017000841B950BA901440F551F240F351F280F11
:10018000391FADECBCEC0E9456029695879596956A
:10019000879596958795909303018093020190939C
:1001A0008900809388000895853B08F084EB282F10
:1001B00030E0A0EABFE00E94560224EB30E040E0CD
:1001C00050E00E94340228513C4F40910001509170
:1001D0000101CA01880F991F880F991F880F991F65
:1001E000841B950BA901440F551F240F351F280FA1
:1001F000391FADECBCEC0E945602969587959695FA
:10020000879596958795909301018093000190932F
:100210008B0080938A00089530E040E050E0BA01FE
:1002200024C0ECE7F0E09081987F282F2770922B74
:10023000908395E39A95F1F70000EAE7F0E090816A
:100240009064908390917A0096FDFCCFE0917800C5
:10025000F09179004E0F5F1F611D711DEFE9FFE006
:100260003197F1F700C000003F5F3830D0F268945A
:1002700012F876956795579547951694D1F790E0C3
:10028000FC01EE0FFF1FEC5FFE4F20813181FA0170
:10029000E21BF30B9F0122F4222733272E1B3F0B77
:1002A000293031053CF0FC01EE0FFF1FEC5FFE4FE3
:1002B00051834083880F991FFC01EC5FFE4F8081C2
:1002C00091810895CF9380E480937C0087E88093A8
:1002D0007A0084B1866084B982EA809380008AE1E2
:1002E000809381008FE39CE9909387008093860040
:1002F000809102019091030190938900809388007E
:10030000809100019091010190938B0080938A006D
:100310002FEF89E698E1215080409040E1F700C03E
:100320000000C0E00DC080E00E940C0181E00E944E
:100330000C018FE19EE40197F1F700C00000CF5F50
:10034000C83088F3CF910895853608F084E680930D
:100350001501811103C085B18E7F85B90895CF93B2
:1003600084B1816084B985B18E7F85B9A0EBB0E09E
:100370001C92E1EBF0E010821092B2008C9182604E
:100380008C9380818260808381E38093B300E0E777
:10039000F0E08081826080837894C0E00DC08C2F73
:1003A0000E94A4012FEF89EF90E0215080409040FF
:1003B000E1F700C00000CF5FC53688F32FEF89E674
:1003C00098E1215080409040E1F700C00000C4E671
:1003D0000DC08C2F0E94A4012FEF89EF90E02150D7
:1003E00080409040E1F700C00000C150C111F1CF42
:1003F00080E00E94A4012FEF89E698E1215080401F
:100400009040E1F700C00000CF9108951F920F9235
:100410000FB60F9211248F939F9380911501811134
:1004200004C085B18E7F85B918C0809114018F5F9B
:100430008093140180911401843610F010921401FD
:100440009091140180911501981720F485B1816075
:1004500085B903C085B18E7F85B99F918F910F902B
:100460000FBE0F901F901895A1E21A2EAA1BBB1B5E
:10047000FD010DC0AA1FBB1FEE1FFF1FA217B30770
:10048000E407F50720F0A21BB30BE40BF50B661F86
:10049000771F881F991F1A9469F76095709580954A
:1004A00090959B01AC01BD01CF010895A29FB001C1
:1004B000B39FC001A39F700D811D1124911DB29F98
:0E04C000700D811D1124911D0895F894FFCF39
:0404CE00B80BB80BA4
:00000001FF
